S02A00004D617472696369616C5F6B6579626F6172645F7363616E5F61746D656761333238702E73726563D5
S11300000C945A000C946F000C946F000C946F00C5
S11300100C946F000C946F000C946F000C946F00A0
S11300200C946F000C946F000C946F000C946F0090
S11300300C946F000C946F000C946F000C946F0080
S11300400C946F000C946F000C946F000C946F0070
S11300500C946F000C946F000C946F000C946F0060
S11300600C946F000C946F000C946F000C946F0050
S11300700C946F000C946F000C946F000C946F0040
S11300800C946F000C946F000C946F000C946F0030
S11300900C946F000C946F000C946F000C946F0020
S11300A00C946F000C946F000C946F000C946F0010
S11300B00C946F0011241FBECFEFD8E0DEBFCDBF7C
S11300C011E0A0E0B1E0ECE0F1E002C005900D9297
S11300D0A430B107D9F70E9471000C9484000C94E9
S11300E000008FEF8AB987B914B885B924E031E0EC
S11300F0E0E0F1E081918BB983B183B183B183B145
S10F0100E217F307B9F7F4CFF894FFCF2F
S107010CFEFDFBF7FE
S9030000FC
